{
  "contractName": "BikramSamvat",
  "abi": [
    {
      "constant": false,
      "inputs": [
        {
          "name": "_year",
          "type": "uint256"
        },
        {
          "name": "_months",
          "type": "int8[12]"
        }
      ],
      "name": "devSetBS",
      "outputs": [
        {
          "name": "",
          "type": "bool"
        }
      ],
      "payable": false,
      "stateMutability": "nonpayable",
      "type": "function"
    },
    {
      "constant": true,
      "inputs": [],
      "name": "MINBSYEAR",
      "outputs": [
        {
          "name": "",
          "type": "uint256"
        }
      ],
      "payable": false,
      "stateMutability": "view",
      "type": "function"
    },
    {
      "constant": true,
      "inputs": [],
      "name": "nowBS",
      "outputs": [
        {
          "name": "year",
          "type": "uint256"
        },
        {
          "name": "month",
          "type": "uint8"
        },
        {
          "name": "date",
          "type": "uint8"
        },
        {
          "name": "hour",
          "type": "uint8"
        },
        {
          "name": "min",
          "type": "uint8"
        },
        {
          "name": "sec",
          "type": "uint8"
        },
        {
          "name": "day",
          "type": "uint8"
        },
        {
          "name": "timestamp",
          "type": "uint256"
        }
      ],
      "payable": false,
      "stateMutability": "view",
      "type": "function"
    },
    {
      "constant": true,
      "inputs": [
        {
          "name": "_timestamp",
          "type": "uint256"
        }
      ],
      "name": "convertTS2BS",
      "outputs": [
        {
          "name": "year",
          "type": "uint256"
        },
        {
          "name": "month",
          "type": "uint8"
        },
        {
          "name": "date",
          "type": "uint8"
        },
        {
          "name": "hour",
          "type": "uint8"
        },
        {
          "name": "min",
          "type": "uint8"
        },
        {
          "name": "sec",
          "type": "uint8"
        },
        {
          "name": "day",
          "type": "uint8"
        },
        {
          "name": "timestamp",
          "type": "uint256"
        }
      ],
      "payable": false,
      "stateMutability": "view",
      "type": "function"
    },
    {
      "constant": true,
      "inputs": [],
      "name": "MaxBSYear",
      "outputs": [
        {
          "name": "",
          "type": "uint256"
        }
      ],
      "payable": false,
      "stateMutability": "view",
      "type": "function"
    },
    {
      "constant": true,
      "inputs": [],
      "name": "dev",
      "outputs": [
        {
          "name": "",
          "type": "address"
        }
      ],
      "payable": false,
      "stateMutability": "view",
      "type": "function"
    },
    {
      "constant": false,
      "inputs": [
        {
          "name": "_year",
          "type": "uint256"
        },
        {
          "name": "_month",
          "type": "uint8"
        },
        {
          "name": "_date",
          "type": "uint8"
        },
        {
          "name": "_hour",
          "type": "uint8"
        },
        {
          "name": "_min",
          "type": "uint8"
        },
        {
          "name": "_sec",
          "type": "uint8"
        }
      ],
      "name": "killSwitch",
      "outputs": [
        {
          "name": "year",
          "type": "uint256"
        },
        {
          "name": "month",
          "type": "uint8"
        },
        {
          "name": "date",
          "type": "uint8"
        },
        {
          "name": "hour",
          "type": "uint8"
        },
        {
          "name": "min",
          "type": "uint8"
        },
        {
          "name": "sec",
          "type": "uint8"
        },
        {
          "name": "day",
          "type": "uint8"
        },
        {
          "name": "timestamp",
          "type": "uint256"
        }
      ],
      "payable": false,
      "stateMutability": "nonpayable",
      "type": "function"
    },
    {
      "constant": true,
      "inputs": [
        {
          "name": "_year",
          "type": "uint256"
        },
        {
          "name": "_month",
          "type": "uint8"
        },
        {
          "name": "_date",
          "type": "uint8"
        },
        {
          "name": "_hour",
          "type": "uint8"
        },
        {
          "name": "_min",
          "type": "uint8"
        },
        {
          "name": "_sec",
          "type": "uint8"
        }
      ],
      "name": "convertNST2TS",
      "outputs": [
        {
          "name": "year",
          "type": "uint256"
        },
        {
          "name": "month",
          "type": "uint8"
        },
        {
          "name": "date",
          "type": "uint8"
        },
        {
          "name": "hour",
          "type": "uint8"
        },
        {
          "name": "min",
          "type": "uint8"
        },
        {
          "name": "sec",
          "type": "uint8"
        },
        {
          "name": "day",
          "type": "uint8"
        },
        {
          "name": "timestamp",
          "type": "uint256"
        }
      ],
      "payable": false,
      "stateMutability": "view",
      "type": "function"
    },
    {
      "constant": true,
      "inputs": [
        {
          "name": "_year",
          "type": "uint256"
        },
        {
          "name": "_month",
          "type": "uint8"
        },
        {
          "name": "_date",
          "type": "uint8"
        }
      ],
      "name": "MaxTimestamp",
      "outputs": [
        {
          "name": "",
          "type": "uint256"
        },
        {
          "name": "month",
          "type": "uint8"
        },
        {
          "name": "date",
          "type": "uint8"
        },
        {
          "name": "hour",
          "type": "uint8"
        },
        {
          "name": "min",
          "type": "uint8"
        },
        {
          "name": "sec",
          "type": "uint8"
        },
        {
          "name": "day",
          "type": "uint8"
        },
        {
          "name": "timestamp",
          "type": "uint256"
        }
      ],
      "payable": false,
      "stateMutability": "view",
      "type": "function"
    },
    {
      "constant": true,
      "inputs": [
        {
          "name": "_year",
          "type": "uint256"
        },
        {
          "name": "_month",
          "type": "uint8"
        },
        {
          "name": "_date",
          "type": "uint8"
        }
      ],
      "name": "convertBS2TS",
      "outputs": [
        {
          "name": "year",
          "type": "uint256"
        },
        {
          "name": "month",
          "type": "uint8"
        },
        {
          "name": "date",
          "type": "uint8"
        },
        {
          "name": "hour",
          "type": "uint8"
        },
        {
          "name": "min",
          "type": "uint8"
        },
        {
          "name": "sec",
          "type": "uint8"
        },
        {
          "name": "day",
          "type": "uint8"
        },
        {
          "name": "timestamp",
          "type": "uint256"
        }
      ],
      "payable": false,
      "stateMutability": "view",
      "type": "function"
    },
    {
      "inputs": [],
      "payable": false,
      "stateMutability": "view",
      "type": "function",
      "constant": true,
      "name": "MinTimestamp",
      "outputs": [
        {
          "name": "",
          "type": "uint256"
        }
      ]
    },
    {
      "payable": false,
      "stateMutability": "nonpayable",
      "type": "constructor",
      "inputs": []
    },
    {
      "payable": true,
      "stateMutability": "payable",
      "type": "fallback"
    }
  ],
  "bytecode": "0x60606040526107ea600355628779a4600455628779a460055534156200002457600080fd5b60008054600160a060020a03191633600160a060020a0316179055620000bf6107eb61018060405190810160409081526000808352600260208401819052600192840183905260608401526080830182905260a0830181905260c0830181905260e083018190526000196101008401819052610120840191909152610140830152610160820152640100000000620002836200014782021704565b50620001406107ec6101806040519081016040908152600180835260208301819052600291830191909152606082018190526080820181905260a0820152600060c0820181905260001960e0830181905261010083018290526101208301526101408201819052610160820152640100000000620002836200014782021704565b5062000611565b6000805433600160a060020a039081169116146200016157fe5b600183036003541480156200018c57506200018a8364010000000062000507620001bf82021704565b155b15156200019557fe5b620001af83836401000000006200054e620001fd82021704565b15620001b9575060015b92915050565b600090815260016020818152604080842054700100000000000000000000000000000000026001608060020a03191684526002909152909120015490565b60008060006200020c620004fb565b600085604051808261018080838360005b83811015620002375780820151838201526020016200021d565b505050509050019150506040519081900390206001608060020a031981166000908152600260205260409020600101549094501515620003a7575060005b600c8160ff1610156200030b576001198660ff8316600c81106200029557fe5b602002015160000b138015620002c2575060038660ff8316600c8110620002b857fe5b602002015160000b125b1515620002cb57fe5b8560ff8216600c8110620002db57fe5b6020020151601e0160000b830192508060ff16600514156200030257600183900b60208301525b60010162000275565b8260010b61016d14806200032357508260010b61016e145b15156200032c57fe5b8260010b61016d146200034157600162000344565b60005b15156040808401919091528683526001608060020a031985166000908152600260205220829081516200037b908290600c62000526565b50602082015181600101556040820151600291909101805460ff1916911515919091179055506200044a565b6001608060020a03198416600090815260026020526040908190209060609051908101604052908160008201600c8060200260405190810160405291906101808301826000855b82829054906101000a900460000b60000b81526020019060010190602082600001049283019260010382029150808411620003ee575050509284525050506001820154602082015260029091015460ff16151560409091015291505b81604001511515620004855760008781526001602081905260408083208201548a8301845292200155600480546301e13380019055620004b3565b60008781526001602081905260408083208201548a830184529220918101910155600480546301e285000190555b505050600093845260016020819052604090942080546001608060020a0319167001000000000000000000000000000000009092049190911790555050600380548201905590565b6101c06040519081016040528062000512620005c3565b815260006020820181905260409091015290565b600183019183908215620005b15791602002820160005b838211156200058057835183826101000a81548160ff021916908360000b60ff16021790555092602001926001016020816000010492830192600103026200053d565b8015620005af5782816101000a81549060ff021916905560010160208160000104928301926001030262000580565b505b50620005bf929150620005ed565b5090565b610180604051908101604052600c815b600081526000199091019060200181620005d35790505090565b6200060e91905b80821115620005bf57805460ff19168155600101620005f4565b90565b610e2880620006216000396000f3006060604052600436106100ae5763ffffffff7c01000000000000000000000000000000000000000000000000000000006000350416630a42a44a81146100b357806330e2118b1461010757806333f8bba61461012c5780633cbe2f8d1461018d5780633ed9d0dc146101a357806391cca3db146101b6578063ada14698146101f2578063c7818b1214610207578063c934011a1461023b578063eb1ed8d11461024e578063fa46dd0514610270575b600080fd5b34156100be57600080fd5b6100f360048035906101a46024600c610180604051908101604052919082826101808082843750939550610283945050505050565b604051901515815260200160405180910390f35b341561011257600080fd5b61011a6102e4565b60405190815260200160405180910390f35b341561013757600080fd5b61013f6102ea565b60405197885260ff968716602089015294861660408089019190915293861660608801529185166080870152841660a086015290921660c084015260e0830152610100909101905180910390f35b341561019857600080fd5b61013f600435610349565b34156101ae57600080fd5b61011a6103c7565b34156101c157600080fd5b6101c96103cd565b60405173ffffffffffffffffffffffffffffffffffffffff909116815260200160405180910390f35b34156101fd57600080fd5b6102056103e9565b005b341561021257600080fd5b61013f60043560ff60243581169060443581169060643581169060843581169060a43516610427565b341561024657600080fd5b61011a610492565b341561025957600080fd5b61013f60043560ff60243581169060443516610498565b341561027b57600080fd5b61011a610501565b600080543373ffffffffffffffffffffffffffffffffffffffff9081169116146102a957fe5b600183036003541480156102c357506102c183610507565b155b15156102cb57fe5b6102d5838361054e565b156102de575060015b92915050565b6107eb81565b6000806000806000806000806102fe610caf565b61030742610859565b9050805181602001518260400151836060015184608001518560a001518660c001518760e0015198509850985098509850985098509850509091929394959697565b60008060008060008060008061035d610caf565b89600554811015801561037257506004548111155b151561037a57fe5b6103838b610859565b9150815182602001518360400151846060015185608001518660a001518760c001518860e00151995099509950995099509950995099505050919395975091939597565b60035481565b60005473ffffffffffffffffffffffffffffffffffffffff1681565b6000543373ffffffffffffffffffffffffffffffffffffffff90811691161461040e57fe5b3373ffffffffffffffffffffffffffffffffffffffff16ff5b60008060008060008060008061043b610caf565b6104498f8f8f8f8f8f6109d5565b9050805181602001518260400151836060015184608001518560a001518660c001518760e001519850985098509850985098509850985050969d959c5096509650965096509650565b60045481565b6000806000806000806000806104ac610caf565b6104bc8c8c8c60008060006109d5565b9050805181602001518260400151836060015184608001518560a001518660c001518760e0015198509850985098509850985098509850509397509397509397509397565b60055481565b600090815260016020818152604080842054700100000000000000000000000000000000026fffffffffffffffffffffffffffffffff191684526002909152909120015490565b600080600061055b610cf3565b600085604051808261018080838360005b8381101561058457808201518382015260200161056c565b505050509050019150506040519081900390206fffffffffffffffffffffffffffffffff19811660009081526002602052604090206001015490945015156106f6575060005b600c8160ff161015610658576001198660ff8316600c81106105e857fe5b602002015160000b138015610613575060038660ff8316600c811061060957fe5b602002015160000b125b151561061b57fe5b8560ff8216600c811061062a57fe5b6020020151601e0160000b830192508060ff166005141561065057600183900b60208301525b6001016105ca565b8260010b61016d148061066f57508260010b61016e145b151561067757fe5b8260010b61016d1461068a57600161068d565b60005b15156040808401919091528683526fffffffffffffffffffffffffffffffff1985166000908152600260205220829081516106cb908290600c610d1c565b50602082015181600101556040820151600291909101805460ff1916911515919091179055506107a1565b6fffffffffffffffffffffffffffffffff198416600090815260026020526040908190209060609051908101604052908160008201600c8060200260405190810160405291906101808301826000855b82829054906101000a900460000b60000b81526020019060010190602082600001049283019260010382029150808411610746575050509284525050506001820154602082015260029091015460ff16151560409091015291505b816040015115156107da5760008781526001602081905260408083208201548a8301845292200155600480546301e13380019055610808565b60008781526001602081905260408083208201548a830184529220918101910155600480546301e285000190555b505050600093845260016020819052604090942080546fffffffffffffffffffffffffffffffff19167001000000000000000000000000000000009092049190911790555050600380548201905590565b610861610caf565b60e08101829052628779a3199091019060006018603c808504040660ff166060830152603c8084040660ff9081166080840152603c84061660a083015260076201518084046002010660ff1660c08301526107eb82526312cc03008304600a0282600001818151019052506312cc0300830692506001600083518152602001908152602001600020600101546201518002830392505b6301dfe2008311156109385761090d8251610bf1565b1515610921576301e133808303925061092b565b6301e28500830392505b81805160010190526108f7565b6109428251610507565b62015180029050808311156109625760076020830152918290039161096a565b600160208301525b8160200151505b600c826020015160ff1610156109bf5761099082518360200151610c3c565b60ff1662015180029050808310156109a7576109bf565b808303925081602001805160010160ff169052610971565b620151808381010460ff16604083015250919050565b6109dd610caf565b8686868686866107eb86101580156109f757506003548611155b8015610a06575060008560ff16115b8015610a155750600d8560ff16105b8015610a24575060008460ff16115b1515610a2c57fe5b610a368686610c3c565b60ff168460ff1611158015610a4e575060188360ff16105b8015610a5d5750603c8260ff16105b8015610a6c5750603c8160ff16105b1515610a7457fe5b628779a460e0880190815260008e815260016020819052604090912001546301e2850002908181510190525060008d815260016020819052604090912001546301e13380908e036107ea19010260e0880181815101905250600660ff8d161115610afd5760076020880152610ae88d610507565b62015180028760e00181815101905250610b05565b600160208801525b8b60ff16876020015160ff161015610b5057610b258d8860200151610c3c565b60ff16620151800262ffffff168760e0018181510190525060208701805160010160ff169052610b05565b8c875260ff8b811660408901526000198c0116620151800262ffffff1660e0880181815101915081815250508760ff168960ff16603c028b60ff16610e100201018760e00181815101905250600762015180628779a460e08a015103811515610bb557fe5b04600201811515610bc257fe5b0660ff90811660c0890152998a16606088015250505050938516608083015250921660a0830152509392505050565b600090815260016020908152604080832054700100000000000000000000000000000000026fffffffffffffffffffffffffffffffff19168352600291829052909120015460ff1690565b600082815260016020908152604080832054700100000000000000000000000000000000026fffffffffffffffffffffffffffffffff1916835260029091528120600019830160ff16600c8110610c8f57fe5b602080820490920154601e929091066101000a900460000b019392505050565b6101006040519081016040908152600080835260208301819052908201819052606082018190526080820181905260a0820181905260c0820181905260e082015290565b6101c060405190810160405280610d08610db2565b815260006020820181905260409091015290565b600183019183908215610da25791602002820160005b83821115610d7357835183826101000a81548160ff021916908360000b60ff1602179055509260200192600101602081600001049283019260010302610d32565b8015610da05782816101000a81549060ff0219169055600101602081600001049283019260010302610d73565b505b50610dae929150610ddb565b5090565b610180604051908101604052600c815b600081526000199091019060200181610dc25790505090565b610df991905b80821115610dae57805460ff19168155600101610de1565b905600a165627a7a723058205698969dd7b2947a285732642df05dc8a2c57909302b842c154b0a6d869781ca0029",
  "source": "pragma solidity ^0.4.18;\r\ncontract BikramSamvat {\r\n\r\n    /*\r\n     * Unix timestamp to Bikram Samvat (Date Time Library) \r\n     * @NepalBitcoin\r\n     */\r\n\r\n    address public dev;\r\n    struct MITI {\r\n        uint256 year;\r\n        uint8 month;\r\n        uint8 date;\r\n        uint8 hour;\r\n        uint8 min;\r\n        uint8 sec;\r\n        uint8 day;\r\n        uint256 timestamp;\r\n    }\r\n\r\n    struct BSYears {\r\n        bytes16 _hash;\r\n        uint256 _leapCount;\r\n    }\r\n\r\n    struct CORE {\r\n        int8[12] monthData;\r\n        uint256 daysIn6Months;\r\n        bool isLeap;\r\n    }\r\n\r\n    mapping(uint256 => BSYears) internal BS;\r\n    mapping(bytes16 => CORE) internal DBCore;\r\n    uint256 internal constant NST = 5 hours + 45 minutes; // GMT+05:45\r\n    uint256 internal constant GENESIS = 103 days - NST; // gap between 1970/1/1 AD to 2027/1/1 BS\r\n    uint256 internal constant EPOCH = 10; //leap year will overflow after (10*365.25*4) yrs\r\n    uint256 internal constant EPOCHYEAR = EPOCH * 1 years; //leap year will overflow after (7*365.25*4) yrs\r\n    uint256 public constant MINBSYEAR = 2027; // BS 2027/1/1 00:00:00 NST\r\n    uint256 public MaxBSYear = 2026; // will increment\r\n    uint256 public MaxTimestamp = 8878500; // will increment\r\n    uint256 public MinTimestamp = 8878500; // will increment\r\n\r\n    function BikramSamvat() public {\r\n        dev = msg.sender;\r\n        devSetBS(2027, [int8(0), 2, 1, 2, 1, 0, 0, 0, -1, 0, -1, 1]);\r\n        devSetBS(2028, [int8(1), 1, 2, 1, 1, 1, 0, -1, 0, -1, 0, 0]);\r\n    }\r\n\r\n    function nowBS()\r\n        public view\r\n        returns(uint256 year, uint8 month, uint8 date,\r\n        uint8 hour, uint8 min, uint8 sec,\r\n        uint8 day, uint256 timestamp) \r\n        {\r\n            MITI memory miti = toBikramSamvat(now);\r\n            return (miti.year, miti.month, miti.date, miti.hour, miti.min, miti.sec, miti.day, miti.timestamp);\r\n    }\r\n\r\n    function convertBS2TS(uint256 _year, uint8 _month, uint8 _date) \r\n        public view \r\n        returns(uint256 year, uint8 month, uint8 date, \r\n        uint8 hour, uint8 min, uint8 sec, \r\n        uint8 day, uint256 timestamp) \r\n        {\r\n            MITI memory miti = toTimestamp(_year, _month, _date, 0, 0, 0);\r\n            return (miti.year, miti.month, miti.date, miti.hour, miti.min, miti.sec, miti.day, miti.timestamp);\r\n    }\r\n\r\n    function convertNST2TS(uint256 _year, uint8 _month, uint8 _date, uint8 _hour, uint8 _min, uint8 _sec)\r\n        public view\r\n        returns(uint256 year, uint8 month, uint8 date,\r\n        uint8 hour, uint8 min, uint8 sec,\r\n        uint8 day, uint256 timestamp) \r\n        {\r\n            MITI memory miti = toTimestamp(_year, _month, _date, _hour, _min, _sec);\r\n            return (miti.year, miti.month, miti.date, miti.hour, miti.min, miti.sec, miti.day, miti.timestamp);\r\n    }\r\n\r\n    function convertTS2BS(uint256 _timestamp)\r\n        public view\r\n        isValidTS(_timestamp)\r\n        returns(uint256 year, uint8 month, uint8 date,\r\n        uint8 hour, uint8 min, uint8 sec,\r\n        uint8 day, uint256 timestamp) \r\n        {\r\n            MITI memory miti = toBikramSamvat(_timestamp);\r\n            return (miti.year, miti.month, miti.date, miti.hour, miti.min, miti.sec, miti.day, miti.timestamp);\r\n    }\r\n\r\n\r\n    modifier isValidTS(uint256 timestamp) {\r\n        assert(timestamp >= MinTimestamp && timestamp <= MaxTimestamp);\r\n        _;\r\n    }\r\n\r\n    modifier isValidBS(uint256 _year, uint8 _month, uint8 _date, uint8 _hour, uint8 _min, uint8 _sec) {\r\n        assert(_year >= MINBSYEAR && _year <= MaxBSYear && _month > 0 && _month < 13 && _date > 0);\r\n        assert(_date <= getDaysInMonth(_year, _month) && _hour < 24 && _min < 60 && _sec < 60);\r\n        _;\r\n    }\r\n\r\n    function isLeapYear(uint256 _year) internal view returns(bool) {\r\n        return DBCore[BS[_year]._hash].isLeap;\r\n    }\r\n\r\n    function getWeekDay(uint256 _timestamp) internal pure returns(uint8) {\r\n        return uint8(((_timestamp / 1 days) + 2) % 7);\r\n    }\r\n\r\n    function getDaysInMonth(uint256 _year, uint8 _month) internal view returns(uint8) {\r\n        return uint8(int8(30) + DBCore[BS[_year]._hash].monthData[_month - 1]);\r\n    }\r\n\r\n    function getMonthArr(uint256 _year) internal view returns(int8[12]) {\r\n        return DBCore[BS[_year]._hash].monthData;\r\n    }\r\n\r\n    function getDaysIn6Months(uint256 _year) internal view returns(uint256) {\r\n        return DBCore[BS[_year]._hash].daysIn6Months;\r\n    }\r\n\r\n    function toTimestamp(uint256 _year, uint8 _month, uint8 _date,\r\n        uint8 _hour, uint8 _min, uint8 _sec)\r\n    internal view\r\n    isValidBS(_year, _month, _date, _hour, _min, _sec)\r\n    returns(MITI memory miti) \r\n        {\r\n        miti.timestamp = GENESIS;\r\n        miti.timestamp += 366 days * BS[_year]._leapCount;\r\n        miti.timestamp += 365 days * ((_year - MINBSYEAR) - BS[_year]._leapCount);\r\n        if (_month > 6) {\r\n            miti.month = 7;\r\n            miti.timestamp += 1 days * getDaysIn6Months(_year);\r\n        } else {\r\n            miti.month = 1;\r\n        }\r\n        while (miti.month < _month) {\r\n            miti.timestamp += 1 days * getDaysInMonth(_year, miti.month);\r\n            miti.month++;\r\n        }\r\n        miti.year = _year;\r\n        miti.date = _date;\r\n        miti.timestamp += 1 days * (_date - 1);\r\n        miti.timestamp += uint256(_hour) * 1 hours + uint256(_min) * 1 minutes + _sec;\r\n        miti.day = uint8((((miti.timestamp - GENESIS) / 1 days) + 2) % 7);\r\n        miti.hour = _hour;\r\n        miti.min = _min;\r\n        miti.sec = _sec;\r\n    }\r\n\r\n    function toBikramSamvat(uint256 _timestamp) internal view returns(MITI memory miti) {\r\n        miti.timestamp = _timestamp;\r\n        _timestamp -= GENESIS;\r\n\r\n        miti.hour = uint8(((_timestamp / 1 minutes) / 1 minutes) % 24);\r\n        miti.min = uint8((_timestamp / 1 minutes) % 1 minutes);\r\n        miti.sec = uint8(_timestamp % 1 minutes);\r\n        miti.day = uint8(((_timestamp / 1 days) + 2) % 7);\r\n\r\n        miti.year = 2027;\r\n        miti.year += uint256(EPOCH * (_timestamp / EPOCHYEAR));\r\n\r\n        _timestamp = _timestamp % EPOCHYEAR;\r\n        _timestamp -= 1 days * BS[miti.year]._leapCount;\r\n\r\n        while (_timestamp > 364 days) {\r\n            if (!isLeapYear(miti.year)) {\r\n                _timestamp -= 365 days;\r\n            } else {\r\n                _timestamp -= 366 days;\r\n            }\r\n            miti.year++;\r\n        }\r\n\r\n        uint256 counter = 1 days * uint256(getDaysIn6Months(miti.year));\r\n\r\n        if (_timestamp > counter) {\r\n            miti.month = 7;\r\n            _timestamp -= counter;\r\n        } else {\r\n            miti.month = 1;\r\n        }\r\n\r\n        for (miti.month; miti.month < 12; miti.month++) {\r\n            counter = (1 days * uint256(getDaysInMonth(miti.year, miti.month)));\r\n            if (_timestamp < counter)\r\n                break;\r\n\r\n            _timestamp -= counter;\r\n        }\r\n        miti.date = uint8(uint256(_timestamp + 86400) / 1 days);\r\n\r\n    }\r\n\r\n    /// Dev functions \r\n\r\n    modifier onlyDev() {\r\n        assert(msg.sender == dev);\r\n        _;\r\n    }\r\n\r\n    function devSetBS(uint256 _year, int8[12] _months) public onlyDev returns(bool) {\r\n        assert(MaxBSYear == _year - 1 && getDaysIn6Months(_year) == 0);\r\n        if (setBSCore(_year, _months))\r\n            return true;\r\n    }\r\n\r\n    function setBSCore(uint _year, int8[12] _months) internal returns(bool) {\r\n\r\n        bytes16 _hash = bytes16(keccak256(_months));\r\n        int16 countDays;\r\n        CORE memory _dbCore;\r\n        if (DBCore[_hash].daysIn6Months == 0) {\r\n            for (uint8 i = 0; i < 12; i++) {\r\n                assert(_months[i] > -2 && _months[i] < 3);\r\n                countDays += (int8(30) + _months[i]);\r\n                if (i == 5)\r\n                    _dbCore.daysIn6Months = uint256(countDays);\r\n            }\r\n            assert(countDays == 365 || countDays == 366);\r\n            _dbCore.isLeap = (countDays == 365) ? false : true;\r\n            _dbCore.monthData = _months;\r\n            DBCore[_hash] = _dbCore;     \r\n        } else {\r\n            _dbCore = DBCore[_hash];\r\n        } \r\n        \r\n        if (!_dbCore.isLeap) {\r\n            BS[_year + 1]._leapCount = BS[_year]._leapCount;\r\n            MaxTimestamp += 365 days;\r\n        } else {\r\n            BS[_year + 1]._leapCount = BS[_year]._leapCount + 1;\r\n            MaxTimestamp += 366 days;\r\n        }\r\n        BS[_year]._hash = _hash;\r\n        MaxBSYear++;\r\n        return true;\r\n    }\r\n\r\n    function killSwitch() public onlyDev {\r\n        selfdestruct(msg.sender);\r\n    }\r\n    /// fallback\r\n    function () public payable {\r\n        revert();\r\n    }\r\n}",
  "sourcePath": "D:\\nginx\\html\\BikramSamvat\\contracts\\BikramSamvat.sol",
  "compiler": {
    "name": "solc",
    "version": "0.4.18+commit.9cf6e910.Emscripten.clang"
  },
  "schemaVersion": "1.0.1",
  "updatedAt": "2018-02-02T21:01:43.673Z"
}